:020000040000FA
:06000000D2EF00F0120037
:06002A000100C20100000C
:08003000800000002C0000001C
:0800380094940F0EBD6ECB681D
:10004000BE6A040ECA6E810EC26EC16A1200F4DF6F
:10005000C284C2B4FED7C250200B1FE1C250100BA5
:100060001CE1C250080B19E1C3CF02F0C4CF03F06A
:10007000060ED89003320232E804FBE102C080F0A1
:1000800003C081F0C450BE6EC350E840E8403F0B4F
:100090000F0FBD6EB90EC26E19D0C250200B16E004
:1000A000C250100B13E0C250080B10E0C3CF02F097
:1000B000C4CF03F0060ED89003320232E804FBE10D
:1000C00002C082F003C083F0810EC26E9EA2FED7F2
:1000D0009E92FA0E0001821902E1010E831901E1DC
:0600E0000000B6D712007B
:0A00E6002A0EF66E000EF76E000EF3
:1000F000F86E00010900F550B16F0900F550B26FBC
:1001000003E1B16701D03DD00900F550AC6F0900A3
:10011000F550AD6F0900F550AE6F09000900F550BC
:10012000E96E0900F550EA6E090009000900F55072
:10013000AF6F0900F550B06F09000900F6CFB3F0BA
:10014000F7CFB4F0F8CFB5F0ACC0F6FFADC0F7FF15
:10015000AEC0F8FF0001AF5302E1B05307E0090061
:10016000F550EE6EAF07F8E2B007F9D7B3C0F6FF6F
:10017000B4C0F7FFB5C0F8FF0001B107000EB25BD5
:04018000BFD71200D3
:0C018400000EF36E00EE00F0060E01D835
:100190001200EA6002D0EE6AFCD7F350E960120068
:0401A000EE6AFCD730
:0C01A40015EE00F025EE00F0F86A019C5A
:1001B00073EC00F0E0EC00F027EC00F0FBD712004D
:0201C00012002B
:0E01C2000000000020416E616C6F67204F75D9
:1001D000742070657220000000002050574D20747C
:0E01E00068726F7567682052432000000000AF
:020000040030CA
:0100010022DC
:010003000EEE
:010006008178
:00000001FF
